{
  "contracts/Inbox.sol": {
    "Inbox": {
      "abi": [
        {
          "inputs": [
            {
              "internalType": "string",
              "name": "initialMessage",
              "type": "string"
            }
          ],
          "stateMutability": "nonpayable",
          "type": "constructor"
        },
        {
          "inputs": [
            {
              "internalType": "bytes32",
              "name": "c__0x5ca72ccf",
              "type": "bytes32"
            }
          ],
          "name": "c_0x5ca72ccf",
          "outputs": [],
          "stateMutability": "pure",
          "type": "function"
        },
        {
          "inputs": [],
          "name": "getMessage",
          "outputs": [
            {
              "internalType": "string",
              "name": "",
              "type": "string"
            }
          ],
          "stateMutability": "view",
          "type": "function"
        },
        {
          "inputs": [
            {
              "internalType": "string",
              "name": "newMessage",
              "type": "string"
            }
          ],
          "name": "setMessage",
          "outputs": [],
          "stateMutability": "nonpayable",
          "type": "function"
        }
      ],
      "evm": {
        "bytecode": {
          "linkReferences": {},
          "object": "60806040523480156200001157600080fd5b5060405162000a4638038062000a46833981810160405281019062000037919062000224565b6200006b7ff70beb12550b8f7b2b411eb519c0a3cf68f0ea716ee01b4607304254a08b788b60001b620000f360201b60201c565b6200009f7f4f13c4a550a735b2e6e89e6e8508cc06beed67a5998675bf3aa33bb58ea9434560001b620000f360201b60201c565b620000d37f3f2cd01e0db1c0dea27c502fcf685713d0ddb6f703dc2bd935bbf95bb995520860001b620000f360201b60201c565b8060009080519060200190620000eb929190620000f6565b5050620003f9565b50565b82805462000104906200030a565b90600052602060002090601f01602090048101928262000128576000855562000174565b82601f106200014357805160ff191683800117855562000174565b8280016001018555821562000174579182015b828111156200017357825182559160200191906001019062000156565b5b50905062000183919062000187565b5090565b5b80821115620001a257600081600090555060010162000188565b5090565b6000620001bd620001b7846200029e565b62000275565b905082815260208101848484011115620001dc57620001db620003d9565b5b620001e9848285620002d4565b509392505050565b600082601f830112620002095762000208620003d4565b5b81516200021b848260208601620001a6565b91505092915050565b6000602082840312156200023d576200023c620003e3565b5b600082015167ffffffffffffffff8111156200025e576200025d620003de565b5b6200026c84828501620001f1565b91505092915050565b60006200028162000294565b90506200028f828262000340565b919050565b6000604051905090565b600067ffffffffffffffff821115620002bc57620002bb620003a5565b5b620002c782620003e8565b9050602081019050919050565b60005b83811015620002f4578082015181840152602081019050620002d7565b8381111562000304576000848401525b50505050565b600060028204905060018216806200032357607f821691505b602082108114156200033a576200033962000376565b5b50919050565b6200034b82620003e8565b810181811067ffffffffffffffff821117156200036d576200036c620003a5565b5b80604052505050565b7f4e487b7100000000000000000000000000000000000000000000000000000000600052602260045260246000fd5b7f4e487b7100000000000000000000000000000000000000000000000000000000600052604160045260246000fd5b600080fd5b600080fd5b600080fd5b600080fd5b6000601f19601f8301169050919050565b61063d80620004096000396000f3fe608060405234801561001057600080fd5b50600436106100415760003560e01c806310bcdce614610046578063368b877214610062578063ce6d41de1461007e575b600080fd5b610060600480360381019061005b919061037b565b61009c565b005b61007c600480360381019061007791906103a8565b61009f565b005b61008661013d565b604051610093919061042a565b60405180910390f35b50565b6100cb7f2d88162632e897c367a6660e36048ca7893b3f5507266df1936b63f935157bfb60001b61009c565b6100f77f2ed93740815a84d2928a97bac1ae4e5c734cd7c496cff132db50e44ab2aa848e60001b61009c565b6101237ffe2f587f85f436adc540500c488a1b389b572f3ab7d70a5472db0c73e571876560001b61009c565b8060009080519060200190610139929190610253565b5050565b606061016b7f1fafc278dc7c30f6aac4087aafde346751cb378f01bbae246fa7f8e02d19e61760001b61009c565b6101977f9da58660adeb9f8dcf89300cf6ec00ebb70f7894606927f9b8c4e50ee68f2fe160001b61009c565b6101c37fe7166de1b85cf7d63b70cd4d24986a587847870744ac51840f6ccc26883da71a60001b61009c565b600080546101d09061050a565b80601f01602080910402602001604051908101604052809291908181526020018280546101fc9061050a565b80156102495780601f1061021e57610100808354040283529160200191610249565b820191906000526020600020905b81548152906001019060200180831161022c57829003601f168201915b5050505050905090565b82805461025f9061050a565b90600052602060002090601f01602090048101928261028157600085556102c8565b82601f1061029a57805160ff19168380011785556102c8565b828001600101855582156102c8579182015b828111156102c75782518255916020019190600101906102ac565b5b5090506102d591906102d9565b5090565b5b808211156102f25760008160009055506001016102da565b5090565b600061030961030484610471565b61044c565b905082815260208101848484011115610325576103246105d0565b5b6103308482856104c8565b509392505050565b600081359050610347816105f0565b92915050565b600082601f830112610362576103616105cb565b5b81356103728482602086016102f6565b91505092915050565b600060208284031215610391576103906105da565b5b600061039f84828501610338565b91505092915050565b6000602082840312156103be576103bd6105da565b5b600082013567ffffffffffffffff8111156103dc576103db6105d5565b5b6103e88482850161034d565b91505092915050565b60006103fc826104a2565b61040681856104ad565b93506104168185602086016104d7565b61041f816105df565b840191505092915050565b6000602082019050818103600083015261044481846103f1565b905092915050565b6000610456610467565b9050610462828261053c565b919050565b6000604051905090565b600067ffffffffffffffff82111561048c5761048b61059c565b5b610495826105df565b9050602081019050919050565b600081519050919050565b600082825260208201905092915050565b6000819050919050565b82818337600083830152505050565b60005b838110156104f55780820151818401526020810190506104da565b83811115610504576000848401525b50505050565b6000600282049050600182168061052257607f821691505b602082108114156105365761053561056d565b5b50919050565b610545826105df565b810181811067ffffffffffffffff821117156105645761056361059c565b5b80604052505050565b7f4e487b7100000000000000000000000000000000000000000000000000000000600052602260045260246000fd5b7f4e487b7100000000000000000000000000000000000000000000000000000000600052604160045260246000fd5b600080fd5b600080fd5b600080fd5b600080fd5b6000601f19601f8301169050919050565b6105f9816104be565b811461060457600080fd5b5056fea264697066735822122008feb5fbb4d89392dac329887331b987fb957a77121044de6de6117e9baa5c2564736f6c63430008070033",
          "opcodes": "PUSH1 0x80 PUSH1 0x40 MSTORE CALLVALUE DUP1 ISZERO PUSH3 0x11 JUMPI PUSH1 0x0 DUP1 REVERT JUMPDEST POP PUSH1 0x40 MLOAD PUSH3 0xA46 CODESIZE SUB DUP1 PUSH3 0xA46 DUP4 CODECOPY DUP2 DUP2 ADD PUSH1 0x40 MSTORE DUP2 ADD SWAP1 PUSH3 0x37 SWAP2 SWAP1 PUSH3 0x224 JUMP JUMPDEST PUSH3 0x6B PUSH32 0xF70BEB12550B8F7B2B411EB519C0A3CF68F0EA716EE01B4607304254A08B788B PUSH1 0x0 SHL PUSH3 0xF3 PUSH1 0x20 SHL PUSH1 0x20 SHR JUMP JUMPDEST PUSH3 0x9F PUSH32 0x4F13C4A550A735B2E6E89E6E8508CC06BEED67A5998675BF3AA33BB58EA94345 PUSH1 0x0 SHL PUSH3 0xF3 PUSH1 0x20 SHL PUSH1 0x20 SHR JUMP JUMPDEST PUSH3 0xD3 PUSH32 0x3F2CD01E0DB1C0DEA27C502FCF685713D0DDB6F703DC2BD935BBF95BB9955208 PUSH1 0x0 SHL PUSH3 0xF3 PUSH1 0x20 SHL PUSH1 0x20 SHR JUMP JUMPDEST DUP1 PUSH1 0x0 SWAP1 DUP1 MLOAD SWAP1 PUSH1 0x20 ADD SWAP1 PUSH3 0xEB SWAP3 SWAP2 SWAP1 PUSH3 0xF6 JUMP JUMPDEST POP POP PUSH3 0x3F9 JUMP JUMPDEST POP JUMP JUMPDEST DUP3 DUP1 SLOAD PUSH3 0x104 SWAP1 PUSH3 0x30A JUMP JUMPDEST SWAP1 PUSH1 0x0 MSTORE PUSH1 0x20 PUSH1 0x0 KECCAK256 SWAP1 PUSH1 0x1F ADD PUSH1 0x20 SWAP1 DIV DUP2 ADD SWAP3 DUP3 PUSH3 0x128 JUMPI PUSH1 0x0 DUP6 SSTORE PUSH3 0x174 JUMP JUMPDEST DUP3 PUSH1 0x1F LT PUSH3 0x143 JUMPI DUP1 MLOAD PUSH1 0xFF NOT AND DUP4 DUP1 ADD OR DUP6 SSTORE PUSH3 0x174 JUMP JUMPDEST DUP3 DUP1 ADD PUSH1 0x1 ADD DUP6 SSTORE DUP3 ISZERO PUSH3 0x174 JUMPI SWAP2 DUP3 ADD JUMPDEST DUP3 DUP2 GT ISZERO PUSH3 0x173 JUMPI DUP3 MLOAD DUP3 SSTORE SWAP2 PUSH1 0x20 ADD SWAP2 SWAP1 PUSH1 0x1 ADD SWAP1 PUSH3 0x156 JUMP JUMPDEST JUMPDEST POP SWAP1 POP PUSH3 0x183 SWAP2 SWAP1 PUSH3 0x187 JUMP JUMPDEST POP SWAP1 JUMP JUMPDEST JUMPDEST DUP1 DUP3 GT ISZERO PUSH3 0x1A2 JUMPI PUSH1 0x0 DUP2 PUSH1 0x0 SWAP1 SSTORE POP PUSH1 0x1 ADD PUSH3 0x188 JUMP JUMPDEST POP SWAP1 JUMP JUMPDEST PUSH1 0x0 PUSH3 0x1BD PUSH3 0x1B7 DUP5 PUSH3 0x29E JUMP JUMPDEST PUSH3 0x275 JUMP JUMPDEST SWAP1 POP DUP3 DUP2 MSTORE PUSH1 0x20 DUP2 ADD DUP5 DUP5 DUP5 ADD GT ISZERO PUSH3 0x1DC JUMPI PUSH3 0x1DB PUSH3 0x3D9 JUMP JUMPDEST JUMPDEST PUSH3 0x1E9 DUP5 DUP3 DUP6 PUSH3 0x2D4 JUMP JUMPDEST POP SWAP4 SWAP3 POP POP POP JUMP JUMPDEST PUSH1 0x0 DUP3 PUSH1 0x1F DUP4 ADD SLT PUSH3 0x209 JUMPI PUSH3 0x208 PUSH3 0x3D4 JUMP JUMPDEST JUMPDEST DUP2 MLOAD PUSH3 0x21B DUP5 DUP3 PUSH1 0x20 DUP7 ADD PUSH3 0x1A6 JUMP JUMPDEST SWAP2 POP POP SWAP3 SWAP2 POP POP JUMP JUMPDEST PUSH1 0x0 PUSH1 0x20 DUP3 DUP5 SUB SLT ISZERO PUSH3 0x23D JUMPI PUSH3 0x23C PUSH3 0x3E3 JUMP JUMPDEST JUMPDEST PUSH1 0x0 DUP3 ADD MLOAD PUSH8 0xFFFFFFFFFFFFFFFF DUP2 GT ISZERO PUSH3 0x25E JUMPI PUSH3 0x25D PUSH3 0x3DE JUMP JUMPDEST JUMPDEST PUSH3 0x26C DUP5 DUP3 DUP6 ADD PUSH3 0x1F1 JUMP JUMPDEST SWAP2 POP POP SWAP3 SWAP2 POP POP JUMP JUMPDEST PUSH1 0x0 PUSH3 0x281 PUSH3 0x294 JUMP JUMPDEST SWAP1 POP PUSH3 0x28F DUP3 DUP3 PUSH3 0x340 JUMP JUMPDEST SWAP2 SWAP1 POP JUMP JUMPDEST PUSH1 0x0 PUSH1 0x40 MLOAD SWAP1 POP SWAP1 JUMP JUMPDEST PUSH1 0x0 PUSH8 0xFFFFFFFFFFFFFFFF DUP3 GT ISZERO PUSH3 0x2BC JUMPI PUSH3 0x2BB PUSH3 0x3A5 JUMP JUMPDEST JUMPDEST PUSH3 0x2C7 DUP3 PUSH3 0x3E8 JUMP JUMPDEST SWAP1 POP PUSH1 0x20 DUP2 ADD SWAP1 POP SWAP2 SWAP1 POP JUMP JUMPDEST PUSH1 0x0 JUMPDEST DUP4 DUP2 LT ISZERO PUSH3 0x2F4 JUMPI DUP1 DUP3 ADD MLOAD DUP2 DUP5 ADD MSTORE PUSH1 0x20 DUP2 ADD SWAP1 POP PUSH3 0x2D7 JUMP JUMPDEST DUP4 DUP2 GT ISZERO PUSH3 0x304 JUMPI PUSH1 0x0 DUP5 DUP5 ADD MSTORE JUMPDEST POP POP POP POP JUMP JUMPDEST PUSH1 0x0 PUSH1 0x2 DUP3 DIV SWAP1 POP PUSH1 0x1 DUP3 AND DUP1 PUSH3 0x323 JUMPI PUSH1 0x7F DUP3 AND SWAP2 POP JUMPDEST PUSH1 0x20 DUP3 LT DUP2 EQ ISZERO PUSH3 0x33A JUMPI PUSH3 0x339 PUSH3 0x376 JUMP JUMPDEST JUMPDEST POP SWAP2 SWAP1 POP JUMP JUMPDEST PUSH3 0x34B DUP3 PUSH3 0x3E8 JUMP JUMPDEST DUP2 ADD DUP2 DUP2 LT PUSH8 0xFFFFFFFFFFFFFFFF DUP3 GT OR ISZERO PUSH3 0x36D JUMPI PUSH3 0x36C PUSH3 0x3A5 JUMP JUMPDEST JUMPDEST DUP1 PUSH1 0x40 MSTORE POP POP POP JUMP JUMPDEST PUSH32 0x4E487B7100000000000000000000000000000000000000000000000000000000 PUSH1 0x0 MSTORE PUSH1 0x22 PUSH1 0x4 MSTORE PUSH1 0x24 PUSH1 0x0 REVERT JUMPDEST PUSH32 0x4E487B7100000000000000000000000000000000000000000000000000000000 PUSH1 0x0 MSTORE PUSH1 0x41 PUSH1 0x4 MSTORE PUSH1 0x24 PUSH1 0x0 REVERT JUMPDEST PUSH1 0x0 DUP1 REVERT JUMPDEST PUSH1 0x0 DUP1 REVERT JUMPDEST PUSH1 0x0 DUP1 REVERT JUMPDEST PUSH1 0x0 DUP1 REVERT JUMPDEST PUSH1 0x0 PUSH1 0x1F NOT PUSH1 0x1F DUP4 ADD AND SWAP1 POP SWAP2 SWAP1 POP JUMP JUMPDEST PUSH2 0x63D DUP1 PUSH3 0x409 PUSH1 0x0 CODECOPY PUSH1 0x0 RETURN INVALID PUSH1 0x80 PUSH1 0x40 MSTORE CALLVALUE DUP1 ISZERO PUSH2 0x10 JUMPI PUSH1 0x0 DUP1 REVERT JUMPDEST POP PUSH1 0x4 CALLDATASIZE LT PUSH2 0x41 JUMPI PUSH1 0x0 CALLDATALOAD PUSH1 0xE0 SHR DUP1 PUSH4 0x10BCDCE6 EQ PUSH2 0x46 JUMPI DUP1 PUSH4 0x368B8772 EQ PUSH2 0x62 JUMPI DUP1 PUSH4 0xCE6D41DE EQ PUSH2 0x7E JUMPI JUMPDEST PUSH1 0x0 DUP1 REVERT JUMPDEST PUSH2 0x60 PUSH1 0x4 DUP1 CALLDATASIZE SUB DUP2 ADD SWAP1 PUSH2 0x5B SWAP2 SWAP1 PUSH2 0x37B JUMP JUMPDEST PUSH2 0x9C JUMP JUMPDEST STOP JUMPDEST PUSH2 0x7C PUSH1 0x4 DUP1 CALLDATASIZE SUB DUP2 ADD SWAP1 PUSH2 0x77 SWAP2 SWAP1 PUSH2 0x3A8 JUMP JUMPDEST PUSH2 0x9F JUMP JUMPDEST STOP JUMPDEST PUSH2 0x86 PUSH2 0x13D JUMP JUMPDEST PUSH1 0x40 MLOAD PUSH2 0x93 SWAP2 SWAP1 PUSH2 0x42A JUMP JUMPDEST PUSH1 0x40 MLOAD DUP1 SWAP2 SUB SWAP1 RETURN JUMPDEST POP JUMP JUMPDEST PUSH2 0xCB PUSH32 0x2D88162632E897C367A6660E36048CA7893B3F5507266DF1936B63F935157BFB PUSH1 0x0 SHL PUSH2 0x9C JUMP JUMPDEST PUSH2 0xF7 PUSH32 0x2ED93740815A84D2928A97BAC1AE4E5C734CD7C496CFF132DB50E44AB2AA848E PUSH1 0x0 SHL PUSH2 0x9C JUMP JUMPDEST PUSH2 0x123 PUSH32 0xFE2F587F85F436ADC540500C488A1B389B572F3AB7D70A5472DB0C73E5718765 PUSH1 0x0 SHL PUSH2 0x9C JUMP JUMPDEST DUP1 PUSH1 0x0 SWAP1 DUP1 MLOAD SWAP1 PUSH1 0x20 ADD SWAP1 PUSH2 0x139 SWAP3 SWAP2 SWAP1 PUSH2 0x253 JUMP JUMPDEST POP POP JUMP JUMPDEST PUSH1 0x60 PUSH2 0x16B PUSH32 0x1FAFC278DC7C30F6AAC4087AAFDE346751CB378F01BBAE246FA7F8E02D19E617 PUSH1 0x0 SHL PUSH2 0x9C JUMP JUMPDEST PUSH2 0x197 PUSH32 0x9DA58660ADEB9F8DCF89300CF6EC00EBB70F7894606927F9B8C4E50EE68F2FE1 PUSH1 0x0 SHL PUSH2 0x9C JUMP JUMPDEST PUSH2 0x1C3 PUSH32 0xE7166DE1B85CF7D63B70CD4D24986A587847870744AC51840F6CCC26883DA71A PUSH1 0x0 SHL PUSH2 0x9C JUMP JUMPDEST PUSH1 0x0 DUP1 SLOAD PUSH2 0x1D0 SWAP1 PUSH2 0x50A JUMP JUMPDEST DUP1 PUSH1 0x1F ADD PUSH1 0x20 DUP1 SWAP2 DIV MUL PUSH1 0x20 ADD PUSH1 0x40 MLOAD SWAP1 DUP2 ADD PUSH1 0x40 MSTORE DUP1 SWAP3 SWAP2 SWAP1 DUP2 DUP2 MSTORE PUSH1 0x20 ADD DUP3 DUP1 SLOAD PUSH2 0x1FC SWAP1 PUSH2 0x50A JUMP JUMPDEST DUP1 ISZERO PUSH2 0x249 JUMPI DUP1 PUSH1 0x1F LT PUSH2 0x21E JUMPI PUSH2 0x100 DUP1 DUP4 SLOAD DIV MUL DUP4 MSTORE SWAP2 PUSH1 0x20 ADD SWAP2 PUSH2 0x249 JUMP JUMPDEST DUP3 ADD SWAP2 SWAP1 PUSH1 0x0 MSTORE PUSH1 0x20 PUSH1 0x0 KECCAK256 SWAP1 JUMPDEST DUP2 SLOAD DUP2 MSTORE SWAP1 PUSH1 0x1 ADD SWAP1 PUSH1 0x20 ADD DUP1 DUP4 GT PUSH2 0x22C JUMPI DUP3 SWAP1 SUB PUSH1 0x1F AND DUP3 ADD SWAP2 JUMPDEST POP POP POP POP POP SWAP1 POP SWAP1 JUMP JUMPDEST DUP3 DUP1 SLOAD PUSH2 0x25F SWAP1 PUSH2 0x50A JUMP JUMPDEST SWAP1 PUSH1 0x0 MSTORE PUSH1 0x20 PUSH1 0x0 KECCAK256 SWAP1 PUSH1 0x1F ADD PUSH1 0x20 SWAP1 DIV DUP2 ADD SWAP3 DUP3 PUSH2 0x281 JUMPI PUSH1 0x0 DUP6 SSTORE PUSH2 0x2C8 JUMP JUMPDEST DUP3 PUSH1 0x1F LT PUSH2 0x29A JUMPI DUP1 MLOAD PUSH1 0xFF NOT AND DUP4 DUP1 ADD OR DUP6 SSTORE PUSH2 0x2C8 JUMP JUMPDEST DUP3 DUP1 ADD PUSH1 0x1 ADD DUP6 SSTORE DUP3 ISZERO PUSH2 0x2C8 JUMPI SWAP2 DUP3 ADD JUMPDEST DUP3 DUP2 GT ISZERO PUSH2 0x2C7 JUMPI DUP3 MLOAD DUP3 SSTORE SWAP2 PUSH1 0x20 ADD SWAP2 SWAP1 PUSH1 0x1 ADD SWAP1 PUSH2 0x2AC JUMP JUMPDEST JUMPDEST POP SWAP1 POP PUSH2 0x2D5 SWAP2 SWAP1 PUSH2 0x2D9 JUMP JUMPDEST POP SWAP1 JUMP JUMPDEST JUMPDEST DUP1 DUP3 GT ISZERO PUSH2 0x2F2 JUMPI PUSH1 0x0 DUP2 PUSH1 0x0 SWAP1 SSTORE POP PUSH1 0x1 ADD PUSH2 0x2DA JUMP JUMPDEST POP SWAP1 JUMP JUMPDEST PUSH1 0x0 PUSH2 0x309 PUSH2 0x304 DUP5 PUSH2 0x471 JUMP JUMPDEST PUSH2 0x44C JUMP JUMPDEST SWAP1 POP DUP3 DUP2 MSTORE PUSH1 0x20 DUP2 ADD DUP5 DUP5 DUP5 ADD GT ISZERO PUSH2 0x325 JUMPI PUSH2 0x324 PUSH2 0x5D0 JUMP JUMPDEST JUMPDEST PUSH2 0x330 DUP5 DUP3 DUP6 PUSH2 0x4C8 JUMP JUMPDEST POP SWAP4 SWAP3 POP POP POP JUMP JUMPDEST PUSH1 0x0 DUP2 CALLDATALOAD SWAP1 POP PUSH2 0x347 DUP2 PUSH2 0x5F0 JUMP JUMPDEST SWAP3 SWAP2 POP POP JUMP JUMPDEST PUSH1 0x0 DUP3 PUSH1 0x1F DUP4 ADD SLT PUSH2 0x362 JUMPI PUSH2 0x361 PUSH2 0x5CB JUMP JUMPDEST JUMPDEST DUP2 CALLDATALOAD PUSH2 0x372 DUP5 DUP3 PUSH1 0x20 DUP7 ADD PUSH2 0x2F6 JUMP JUMPDEST SWAP2 POP POP SWAP3 SWAP2 POP POP JUMP JUMPDEST PUSH1 0x0 PUSH1 0x20 DUP3 DUP5 SUB SLT ISZERO PUSH2 0x391 JUMPI PUSH2 0x390 PUSH2 0x5DA JUMP JUMPDEST JUMPDEST PUSH1 0x0 PUSH2 0x39F DUP5 DUP3 DUP6 ADD PUSH2 0x338 JUMP JUMPDEST SWAP2 POP POP SWAP3 SWAP2 POP POP JUMP JUMPDEST PUSH1 0x0 PUSH1 0x20 DUP3 DUP5 SUB SLT ISZERO PUSH2 0x3BE JUMPI PUSH2 0x3BD PUSH2 0x5DA JUMP JUMPDEST JUMPDEST PUSH1 0x0 DUP3 ADD CALLDATALOAD PUSH8 0xFFFFFFFFFFFFFFFF DUP2 GT ISZERO PUSH2 0x3DC JUMPI PUSH2 0x3DB PUSH2 0x5D5 JUMP JUMPDEST JUMPDEST PUSH2 0x3E8 DUP5 DUP3 DUP6 ADD PUSH2 0x34D JUMP JUMPDEST SWAP2 POP POP SWAP3 SWAP2 POP POP JUMP JUMPDEST PUSH1 0x0 PUSH2 0x3FC DUP3 PUSH2 0x4A2 JUMP JUMPDEST PUSH2 0x406 DUP2 DUP6 PUSH2 0x4AD JUMP JUMPDEST SWAP4 POP PUSH2 0x416 DUP2 DUP6 PUSH1 0x20 DUP7 ADD PUSH2 0x4D7 JUMP JUMPDEST PUSH2 0x41F DUP2 PUSH2 0x5DF JUMP JUMPDEST DUP5 ADD SWAP2 POP POP SWAP3 SWAP2 POP POP JUMP JUMPDEST PUSH1 0x0 PUSH1 0x20 DUP3 ADD SWAP1 POP DUP2 DUP2 SUB PUSH1 0x0 DUP4 ADD MSTORE PUSH2 0x444 DUP2 DUP5 PUSH2 0x3F1 JUMP JUMPDEST SWAP1 POP SWAP3 SWAP2 POP POP JUMP JUMPDEST PUSH1 0x0 PUSH2 0x456 PUSH2 0x467 JUMP JUMPDEST SWAP1 POP PUSH2 0x462 DUP3 DUP3 PUSH2 0x53C JUMP JUMPDEST SWAP2 SWAP1 POP JUMP JUMPDEST PUSH1 0x0 PUSH1 0x40 MLOAD SWAP1 POP SWAP1 JUMP JUMPDEST PUSH1 0x0 PUSH8 0xFFFFFFFFFFFFFFFF DUP3 GT ISZERO PUSH2 0x48C JUMPI PUSH2 0x48B PUSH2 0x59C JUMP JUMPDEST JUMPDEST PUSH2 0x495 DUP3 PUSH2 0x5DF JUMP JUMPDEST SWAP1 POP PUSH1 0x20 DUP2 ADD SWAP1 POP SWAP2 SWAP1 POP JUMP JUMPDEST PUSH1 0x0 DUP2 MLOAD SWAP1 POP SWAP2 SWAP1 POP JUMP JUMPDEST PUSH1 0x0 DUP3 DUP3 MSTORE PUSH1 0x20 DUP3 ADD SWAP1 POP SWAP3 SWAP2 POP POP JUMP JUMPDEST PUSH1 0x0 DUP2 SWAP1 POP SWAP2 SWAP1 POP JUMP JUMPDEST DUP3 DUP2 DUP4 CALLDATACOPY PUSH1 0x0 DUP4 DUP4 ADD MSTORE POP POP POP JUMP JUMPDEST PUSH1 0x0 JUMPDEST DUP4 DUP2 LT ISZERO PUSH2 0x4F5 JUMPI DUP1 DUP3 ADD MLOAD DUP2 DUP5 ADD MSTORE PUSH1 0x20 DUP2 ADD SWAP1 POP PUSH2 0x4DA JUMP JUMPDEST DUP4 DUP2 GT ISZERO PUSH2 0x504 JUMPI PUSH1 0x0 DUP5 DUP5 ADD MSTORE JUMPDEST POP POP POP POP JUMP JUMPDEST PUSH1 0x0 PUSH1 0x2 DUP3 DIV SWAP1 POP PUSH1 0x1 DUP3 AND DUP1 PUSH2 0x522 JUMPI PUSH1 0x7F DUP3 AND SWAP2 POP JUMPDEST PUSH1 0x20 DUP3 LT DUP2 EQ ISZERO PUSH2 0x536 JUMPI PUSH2 0x535 PUSH2 0x56D JUMP JUMPDEST JUMPDEST POP SWAP2 SWAP1 POP JUMP JUMPDEST PUSH2 0x545 DUP3 PUSH2 0x5DF JUMP JUMPDEST DUP2 ADD DUP2 DUP2 LT PUSH8 0xFFFFFFFFFFFFFFFF DUP3 GT OR ISZERO PUSH2 0x564 JUMPI PUSH2 0x563 PUSH2 0x59C JUMP JUMPDEST JUMPDEST DUP1 PUSH1 0x40 MSTORE POP POP POP JUMP JUMPDEST PUSH32 0x4E487B7100000000000000000000000000000000000000000000000000000000 PUSH1 0x0 MSTORE PUSH1 0x22 PUSH1 0x4 MSTORE PUSH1 0x24 PUSH1 0x0 REVERT JUMPDEST PUSH32 0x4E487B7100000000000000000000000000000000000000000000000000000000 PUSH1 0x0 MSTORE PUSH1 0x41 PUSH1 0x4 MSTORE PUSH1 0x24 PUSH1 0x0 REVERT JUMPDEST PUSH1 0x0 DUP1 REVERT JUMPDEST PUSH1 0x0 DUP1 REVERT JUMPDEST PUSH1 0x0 DUP1 REVERT JUMPDEST PUSH1 0x0 DUP1 REVERT JUMPDEST PUSH1 0x0 PUSH1 0x1F NOT PUSH1 0x1F DUP4 ADD AND SWAP1 POP SWAP2 SWAP1 POP JUMP JUMPDEST PUSH2 0x5F9 DUP2 PUSH2 0x4BE JUMP JUMPDEST DUP2 EQ PUSH2 0x604 JUMPI PUSH1 0x0 DUP1 REVERT JUMPDEST POP JUMP INVALID LOG2 PUSH5 0x6970667358 0x22 SLT KECCAK256 ADDMOD INVALID 0xB5 0xFB 0xB4 0xD8 SWAP4 SWAP3 0xDA 0xC3 0x29 DUP9 PUSH20 0x31B987FB957A77121044DE6DE6117E9BAA5C2564 PUSH20 0x6F6C634300080700330000000000000000000000 "
        },
        "methodIdentifiers": {
          "c_0x5ca72ccf(bytes32)": "10bcdce6",
          "getMessage()": "ce6d41de",
          "setMessage(string)": "368b8772"
        }
      }
    }
  }
}