{
  "_format": "hh-sol-artifact-1",
  "contractName": "Inbox",
  "sourceName": "contracts/Inbox.sol",
  "abi": [
    {
      "inputs": [
        {
          "internalType": "string",
          "name": "initialMessage",
          "type": "string"
        }
      ],
      "stateMutability": "nonpayable",
      "type": "constructor"
    },
    {
      "inputs": [
        {
          "internalType": "bytes32",
          "name": "c__0x5ca72ccf",
          "type": "bytes32"
        }
      ],
      "name": "c_0x5ca72ccf",
      "outputs": [],
      "stateMutability": "pure",
      "type": "function"
    },
    {
      "inputs": [],
      "name": "getMessage",
      "outputs": [
        {
          "internalType": "string",
          "name": "",
          "type": "string"
        }
      ],
      "stateMutability": "view",
      "type": "function"
    },
    {
      "inputs": [
        {
          "internalType": "string",
          "name": "newMessage",
          "type": "string"
        }
      ],
      "name": "setMessage",
      "outputs": [],
      "stateMutability": "nonpayable",
      "type": "function"
    }
  ],
  "bytecode": "0x60806040523480156200001157600080fd5b5060405162000a4638038062000a46833981810160405281019062000037919062000224565b6200006b7ff70beb12550b8f7b2b411eb519c0a3cf68f0ea716ee01b4607304254a08b788b60001b620000f360201b60201c565b6200009f7f4f13c4a550a735b2e6e89e6e8508cc06beed67a5998675bf3aa33bb58ea9434560001b620000f360201b60201c565b620000d37f3f2cd01e0db1c0dea27c502fcf685713d0ddb6f703dc2bd935bbf95bb995520860001b620000f360201b60201c565b8060009080519060200190620000eb929190620000f6565b5050620003f9565b50565b82805462000104906200030a565b90600052602060002090601f01602090048101928262000128576000855562000174565b82601f106200014357805160ff191683800117855562000174565b8280016001018555821562000174579182015b828111156200017357825182559160200191906001019062000156565b5b50905062000183919062000187565b5090565b5b80821115620001a257600081600090555060010162000188565b5090565b6000620001bd620001b7846200029e565b62000275565b905082815260208101848484011115620001dc57620001db620003d9565b5b620001e9848285620002d4565b509392505050565b600082601f830112620002095762000208620003d4565b5b81516200021b848260208601620001a6565b91505092915050565b6000602082840312156200023d576200023c620003e3565b5b600082015167ffffffffffffffff8111156200025e576200025d620003de565b5b6200026c84828501620001f1565b91505092915050565b60006200028162000294565b90506200028f828262000340565b919050565b6000604051905090565b600067ffffffffffffffff821115620002bc57620002bb620003a5565b5b620002c782620003e8565b9050602081019050919050565b60005b83811015620002f4578082015181840152602081019050620002d7565b8381111562000304576000848401525b50505050565b600060028204905060018216806200032357607f821691505b602082108114156200033a576200033962000376565b5b50919050565b6200034b82620003e8565b810181811067ffffffffffffffff821117156200036d576200036c620003a5565b5b80604052505050565b7f4e487b7100000000000000000000000000000000000000000000000000000000600052602260045260246000fd5b7f4e487b7100000000000000000000000000000000000000000000000000000000600052604160045260246000fd5b600080fd5b600080fd5b600080fd5b600080fd5b6000601f19601f8301169050919050565b61063d80620004096000396000f3fe608060405234801561001057600080fd5b50600436106100415760003560e01c806310bcdce614610046578063368b877214610062578063ce6d41de1461007e575b600080fd5b610060600480360381019061005b919061037b565b61009c565b005b61007c600480360381019061007791906103a8565b61009f565b005b61008661013d565b604051610093919061042a565b60405180910390f35b50565b6100cb7f2d88162632e897c367a6660e36048ca7893b3f5507266df1936b63f935157bfb60001b61009c565b6100f77f2ed93740815a84d2928a97bac1ae4e5c734cd7c496cff132db50e44ab2aa848e60001b61009c565b6101237ffe2f587f85f436adc540500c488a1b389b572f3ab7d70a5472db0c73e571876560001b61009c565b8060009080519060200190610139929190610253565b5050565b606061016b7f1fafc278dc7c30f6aac4087aafde346751cb378f01bbae246fa7f8e02d19e61760001b61009c565b6101977f9da58660adeb9f8dcf89300cf6ec00ebb70f7894606927f9b8c4e50ee68f2fe160001b61009c565b6101c37fe7166de1b85cf7d63b70cd4d24986a587847870744ac51840f6ccc26883da71a60001b61009c565b600080546101d09061050a565b80601f01602080910402602001604051908101604052809291908181526020018280546101fc9061050a565b80156102495780601f1061021e57610100808354040283529160200191610249565b820191906000526020600020905b81548152906001019060200180831161022c57829003601f168201915b5050505050905090565b82805461025f9061050a565b90600052602060002090601f01602090048101928261028157600085556102c8565b82601f1061029a57805160ff19168380011785556102c8565b828001600101855582156102c8579182015b828111156102c75782518255916020019190600101906102ac565b5b5090506102d591906102d9565b5090565b5b808211156102f25760008160009055506001016102da565b5090565b600061030961030484610471565b61044c565b905082815260208101848484011115610325576103246105d0565b5b6103308482856104c8565b509392505050565b600081359050610347816105f0565b92915050565b600082601f830112610362576103616105cb565b5b81356103728482602086016102f6565b91505092915050565b600060208284031215610391576103906105da565b5b600061039f84828501610338565b91505092915050565b6000602082840312156103be576103bd6105da565b5b600082013567ffffffffffffffff8111156103dc576103db6105d5565b5b6103e88482850161034d565b91505092915050565b60006103fc826104a2565b61040681856104ad565b93506104168185602086016104d7565b61041f816105df565b840191505092915050565b6000602082019050818103600083015261044481846103f1565b905092915050565b6000610456610467565b9050610462828261053c565b919050565b6000604051905090565b600067ffffffffffffffff82111561048c5761048b61059c565b5b610495826105df565b9050602081019050919050565b600081519050919050565b600082825260208201905092915050565b6000819050919050565b82818337600083830152505050565b60005b838110156104f55780820151818401526020810190506104da565b83811115610504576000848401525b50505050565b6000600282049050600182168061052257607f821691505b602082108114156105365761053561056d565b5b50919050565b610545826105df565b810181811067ffffffffffffffff821117156105645761056361059c565b5b80604052505050565b7f4e487b7100000000000000000000000000000000000000000000000000000000600052602260045260246000fd5b7f4e487b7100000000000000000000000000000000000000000000000000000000600052604160045260246000fd5b600080fd5b600080fd5b600080fd5b600080fd5b6000601f19601f8301169050919050565b6105f9816104be565b811461060457600080fd5b5056fea264697066735822122008feb5fbb4d89392dac329887331b987fb957a77121044de6de6117e9baa5c2564736f6c63430008070033",
  "linkReferences": {},
  "deployedLinkReferences": {}
}